S012000054656D705265616465722E7372656329
S113000035C1000050C100004EC100004CC10000C9
S11300104AC1000048C1000046C1000044C10000BC
S113002042C1000040C100003EC100003CC10000CC
S11300303AC1000038C1000036C1000034C10000DC
S113004032C1000030C100002EC100002CC10000EC
S11300502AC1000028C1000026C1000024C10000FC
S113006022C1000020C100001EC100001CC100000C
S11300701AC1000018C1000016C1000014C100001C
S113008012C1000010C100000EC1000000000000F9
S11300900000005F00000007000700147F147F14B5
S11300A0242A7F2A122313086462364955225000F9
S11300B005030000001C2241000041221C0014081A
S11300C03E081408083E08080050300000080808DC
S11300D00808006060000020100804023E514945F1
S11300E03E00427F400042615149462141454B3127
S11300F01814127F1027454545393C4A49493001B7
S1130100710905033649494936064949291E00360D
S1130110360000005636000008142241001414145E
S1130120141400412214080201510906324979418C
S11301303E7E1111117E7F494949363E414141229B
S11301407F4141221C7F494949417F090909013EF8
S11301504149497A7F0808087F00417F41002040D7
S1130160413F017F081422417F404040407F020C00
S1130170027F7F0408107F3E4141413E7F09090907
S1130180063E4151215E7F091929464649494931B4
S113019001017F01013F4040403F1F2040201F3F9D
S11301A04038403F6314081463070870080761511E
S11301B0494543007F4141000204081020004141A9
S11301C07F00040201020440404040400001020458
S11301D00020545454787F484444383844444420DC
S11301E0384444487F3854545418087E0901020C9A
S11301F05252523E7F0804047800447D400020405F
S1130200443D007F1028440000417F40007C0418D6
S113021004787C0804047838444444387C14141466
S113022008081414187C7C08040408485454542006
S1130230043F4440203C4040207C1C2040201C3C87
S11302404030403C44281028440C5050503C4464F6
S1130250544C44000836410000007F000000413641
S113026008001008081008000000000011241FBE38
S1130270CFEFD0E4DEBFCDBF11E0A0E0B1E0E0E11C
S1130280F7E000E00BBF02C007900D92A231B10766
S1130290D9F723E0A2E1B1E001C01D92A631B20773
S11302A0E1F7D6D133C2ACCE2998662311F02B9A4C
S11302B015C02B9813C0AC01022E02C0559547956A
S11302C00A94E2F740FF02C02C9A01C02C982D9AA0
S11302D02D982150310978F7299A089527E030E0C4
S11302E090E0E9CF60E0E0CF0895CF93DF93219AC7
S11302F0229A239A249A259A2A9A299A8FE19EE48B
S11303000197F1F700C000002A989FE725EB81E0F0
S1130310915020408040E1F700C000002A9A2998BB
S113032081E2E0DF83E1DEDF86E0DCDF82ECDADF3E
S113033080E2D8DF89E0D6DF80E8D4DF80E4D2DF52
S1130340C8EFD1E061E080E0AFDF2197D9F788E022
S1130350C9DF8CE0C7DFDF91CF91089580E8C2DF69
S113036080E4C0DF10920F0310921003E7E1F1E084
S11303708FE093E01192E817F907E1F70895262F2B
S113038026952695269590E034E5239F800D911DB2
S11303901124442379F0FC01E95EFE4F677081E08B
S11303A090E002C0880F991F6A95E2F79081892B2B
S11303B080830895FC01E95EFE4F677081E090E060
S11303C002C0880F991F6A95E2F78095908189236E
S11303D0808308955F926F927F928F929F92AF92E3
S11303E0BF92CF92DF92EF92FF920F931F93CF931E
S11303F0DF93562E262F30E04901880C991C880C77
S1130400991C820E931E181419040CF059C089010A
S1130410000F111F000F111F000F111F021B130BE0
S1130420612CA82EB12CC50180975C01AA0CBB1CC1
S1130430AA0CBB1CA80EB91E0F2EF0E1CF2EF3E0C0
S1130440DF2EF02D0F2EFFE0EF2EF3E0FF2EF02D28
S11304502AC0FE01249130E0872D652D18D102C0F9
S1130460359527958A95E2F720FF09C0F60160814A
S1130470670DF701808141E0860D81DF08C0F60138
S11304806081670DF701808140E0860D78DF739409
S1130490872D90E080179107E4F26394862D90E015
S11304A0881599056CF410161106BCF7862D652D78
S11304B0EED0E501C80FD11DC457DF4F712CC9CF51
S11304C080910F0391E0980F852D880F880F850D7B
S11304D0890F843518F480930F030EC010920F0314
S11304E0E0E1F3E0808191E0980F852D880F880F7B
S11304F0880F8519890F808380911003803320F041
S113050010920F0310921003DF91CF911F910F915E
S1130510FF90EF90DF90CF90BF90AF909F908F901F
S11305207F906F905F9008951F93CF93DF93EC01BA
S11305308881882339F0162F2196612F4BDF89910A
S11305408111FBCFDF91CF911F9108950F931F93DA
S1130550CF93DF9380E8C6DE80E4C4DEC7E1D1E058
S11305600FE013E061E089919FDEC017D107D1F756
S1130570DF91CF911F910F910895569A5E988FE362
S11305809CE90197F1F700C000005E9A089556981F
S11305904E99FECF4E9BFECF4E99FECF089588E034
S11305A090E04E9BFECF20E52A95F1F74E9B07C0C5
S11305B020911201220F21602093120105C0209185
S11305C01201220F209312014E99FECF019749F791
S11305D0809112010895609300017093010180934A
S11305E002019093030160931301709314018093AB
S11305F01501909316010895CF93DF9300D000D096
S11306001F92CDB7DEB74AE0BE016F5F7F4F4BD07C
S1130610A5DE63E0CE01019687DF98DF0F900F908F
S11306200F900F900F90DF91CF910895A6DFAFDF69
S1130630B6DF80931403B3DF80931103B0DF80939C
S11306401303ADDF809315038091130390E00895A5
S11306506AE070E080E090E0BEDF11B88FEF82B90D
S113066014B885B987B918B88AB91BB83EDE76DEE6
S113067061E084E091E058DF10920F038AE08093F8
S1130680100384E690E0B8DFD1DFB6DFFDCF991B1D
S113069079E004C0991F961708F0961B881F7A9575
S11306A0C9F780950895BB274A3031F4992322F481
S11306B0BDE2909581959F4F01C0BB27FB01552753
S11306C0AA27880F991FAA1FA41710F0A41B8395AB
S11306D05051B9F7A05DAA3308F0A95DA193009722
S11306E079F7B111B1931192CB0100C0DC01FC0187
S11306F0672F71917723E1F7329704C07C916D9352
S113070070836291AE17BF07C8F30895F894FFCFC2
S1130710010000004954275320574F524B494E477C
S10507202100B2
S9030000FC
