:1000000035C1000050C100004EC100004CC10000CD
:100010004AC1000048C1000046C1000044C10000C0
:1000200042C1000040C100003EC100003CC10000D0
:100030003AC1000038C1000036C1000034C10000E0
:1000400032C1000030C100002EC100002CC10000F0
:100050002AC1000028C1000026C1000024C1000000
:1000600022C1000020C100001EC100001CC1000010
:100070001AC1000018C1000016C1000014C1000020
:1000800012C1000010C100000EC1000000000000FD
:100090000000005F00000007000700147F147F14B9
:1000A000242A7F2A122313086462364955225000FD
:1000B00005030000001C2241000041221C0014081E
:1000C0003E081408083E08080050300000080808E0
:1000D0000808006060000020100804023E514945F5
:1000E0003E00427F400042615149462141454B312B
:1000F0001814127F1027454545393C4A49493001BB
:10010000710905033649494936064949291E003611
:100110003600000056360000081422410014141462
:100120001414004122140802015109063249794190
:100130003E7E1111117E7F494949363E414141229F
:100140007F4141221C7F494949417F090909013EFC
:100150004149497A7F0808087F00417F41002040DB
:10016000413F017F081422417F404040407F020C04
:10017000027F7F0408107F3E4141413E7F0909090B
:10018000063E4151215E7F091929464649494931B8
:1001900001017F01013F4040403F1F2040201F3FA1
:1001A0004038403F63140814630708700807615122
:1001B000494543007F4141000204081020004141AD
:1001C0007F0004020102044040404040000102045C
:1001D0000020545454787F484444383844444420E0
:1001E000384444487F3854545418087E0901020C9E
:1001F0005252523E7F0804047800447D4000204063
:10020000443D007F1028440000417F40007C0418DA
:1002100004787C0804047838444444387C1414146A
:1002200008081414187C7C0804040848545454200A
:10023000043F4440203C4040207C1C2040201C3C8B
:100240004030403C44281028440C5050503C4464FA
:10025000544C44000836410000007F000000413645
:1002600008001008081008000000000011241FBE3C
:10027000CFEFD0E4DEBFCDBF11E0A0E0B1E0EEE40F
:10028000F6E000E00BBF02C007900D92A431B10769
:10029000D9F723E0A4E1B1E001C01D92A431B20777
:1002A000E1F79CD1D2C1ACCE4198662311F0439ABC
:1002B00015C0439813C0AC01022E02C05595479556
:1002C0000A94E2F740FF02C0449A01C04498459A5C
:1002D00045982150310978F7419A089527E030E098
:1002E00090E0E9CF60E0E0CF0895CF93DF93399AB3
:1002F0003A9A3B9A3C9A3D9A429A419A8FE19EE4FF
:100300000197F1F700C0000042989FE725EB81E0DC
:10031000915020408040E1F700C00000429A41988F
:1003200081E2E0DF83E1DEDF86E0DCDF82ECDADF42
:1003300080E2D8DF89E0D6DF80E8D4DF80E4D2DF56
:10034000C8EFD1E061E080E0AFDF2197D9F788E026
:10035000C9DF8CE0C7DFDF91CF91089580E8C2DF6D
:1003600080E4C0DF10920D0310920E03E5E1F1E08E
:100370008DE093E01192E817F907E1F70895262F31
:1003800026952695269590E034E5239F800D911DB6
:100390001124442379F0FC01EB5EFE4F677081E08D
:1003A00090E002C0880F991F6A95E2F79081892B2F
:1003B00080830895FC01EB5EFE4F677081E090E062
:1003C00002C0880F991F6A95E2F780959081892372
:1003D000808308955F926F927F928F929F92AF92E7
:1003E000BF92CF92DF92EF92FF920F931F93CF9322
:1003F000DF93562E262F30E04901880C991C880C7B
:10040000991C820E931E181419040CF059C089010E
:10041000000F111F000F111F000F111F021B130BE4
:10042000612CA82EB12CC50180975C01AA0CBB1CC5
:10043000AA0CBB1CA80EB91E0F2EFEE0CF2EF3E0B7
:10044000DF2EF02D0F2EFDE0EF2EF3E0FF2EF02D2E
:100450002AC0FE01249130E0872D652DEAD002C02C
:10046000359527958A95E2F720FF09C0F60160814E
:10047000670DF701808141E0860D81DF08C0F6013C
:100480006081670DF701808140E0860D78DF73940D
:10049000872D90E080179107E4F26394862D90E019
:1004A000881599056CF410161106BCF7862D652D7C
:1004B000C0D0E501C80FD11DC457DF4F712CC9CF83
:1004C00080910D0391E0980F852D880F880F850D81
:1004D000890F843518F480930D030EC010920D031C
:1004E000EEE0F3E0808191E0980F852D880F880F72
:1004F000880F8519890F808380910E03803320F047
:1005000010920D0310920E03DF91CF911F910F9166
:10051000FF90EF90DF90CF90BF90AF909F908F9023
:100520007F906F905F9008951F93CF93DF93EC01BE
:100530008881882339F0162F2196612F4BDF89910E
:100540008111FBCFDF91CF911F9108950F931F93DE
:10055000CF93DF9380E8C6DE80E4C4DEC5E1D1E05E
:100560000DE013E061E089919FDEC017D107D1F75C
:10057000DF91CF911F910F9108950E9A16988FE3F6
:100580009CE90197F1F700C00000169A08950E98B3
:100590000699FECF069BFECF0699FECF089588E010
:1005A00090E0069BFECFEFE5FAEE3197F1F700C041
:1005B0000000069B07C020911401220F21602093A8
:1005C000140105C020911401220F209314010699F3
:1005D000FECF019731F780911401089511B88FEF84
:1005E00082B914B885B987B918B88AB91BB87DDE45
:1005F000B5DE61E080E091E097DF10920D038AE0C4
:1006000080930E0363E08EE091E08EDF9FDFB5DF25
:10061000BEDFC5DF80931203C2DF80930F03BFDF0D
:1006200080931103BCDF80931303B9DF8093100321
:10063000EECF991B79E004C0991F961708F0961B1E
:0E064000881F7A95C9F780950895F894FFCF2A
:10064E004954275320574F524B494E4721004E696C
:04065E0063652100AF
:00000001FF
