:1000000035C1000050C100004EC100004CC10000CD
:100010004AC1000048C1000046C1000044C10000C0
:1000200042C1000040C100003EC100003CC10000D0
:100030003AC1000038C1000036C1000034C10000E0
:1000400032C1000030C100002EC100002CC10000F0
:100050002AC1000028C1000026C1000024C1000000
:1000600022C1000020C100001EC100001CC1000010
:100070001AC1000018C1000016C1000014C1000020
:1000800012C1000010C100000EC1000000000000FD
:100090000000005F00000007000700147F147F14B9
:1000A000242A7F2A122313086462364955225000FD
:1000B00005030000001C2241000041221C0014081E
:1000C0003E081408083E08080050300000080808E0
:1000D0000808006060000020100804023E514945F5
:1000E0003E00427F400042615149462141454B312B
:1000F0001814127F1027454545393C4A49493001BB
:10010000710905033649494936064949291E003611
:100110003600000056360000081422410014141462
:100120001414004122140802015109063249794190
:100130003E7E1111117E7F494949363E414141229F
:100140007F4141221C7F494949417F090909013EFC
:100150004149497A7F0808087F00417F41002040DB
:10016000413F017F081422417F404040407F020C04
:10017000027F7F0408107F3E4141413E7F0909090B
:10018000063E4151215E7F091929464649494931B8
:1001900001017F01013F4040403F1F2040201F3FA1
:1001A0004038403F63140814630708700807615122
:1001B000494543007F4141000204081020004141AD
:1001C0007F0004020102044040404040000102045C
:1001D0000020545454787F484444383844444420E0
:1001E000384444487F3854545418087E0901020C9E
:1001F0005252523E7F0804047800447D4000204063
:10020000443D007F1028440000417F40007C0418DA
:1002100004787C0804047838444444387C1414146A
:1002200008081414187C7C0804040848545454200A
:10023000043F4440203C4040207C1C2040201C3C8B
:100240004030403C44281028440C5050503C4464FA
:10025000544C44000836410000007F000000413645
:1002600008001008081008000000000011241FBE3C
:10027000CFEFD0E4DEBFCDBF11E0A0E0B1E0ECED08
:10028000FAE000E00BBF02C007900D92A833B1075F
:10029000D9F723E0A8E3B1E001C01D92A934B20769
:1002A000E1F748D219C4ACCE2998662311F02B9AF5
:1002B00015C02B9813C0AC01022E02C0559547956E
:1002C0000A94E2F740FF02C02C9A01C02C982D9AA4
:1002D0002D982150310978F7299A089527E030E0C8
:1002E00090E0E9CF60E0E0CF0895CF93DF93219ACB
:1002F000229A239A249A259A2A9A299A83EC99E099
:100300000197F1F700C000002A988BE594E401976B
:10031000F1F700C000002A9A299881E2E3DF83E127
:10032000E1DF86E0DFDF82ECDDDF80E2DBDF89E03A
:10033000D9DF80E8D7DF80E4D5DFC8EFD1E061E026
:1003400080E0B2DF2197D9F788E0CCDF8CE0CADF0C
:10035000DF91CF91089580E8C5DF80E4C3DF10927C
:10036000360310923703EEE3F1E086E393E0119257
:10037000E817F907E1F70895262F26952695269583
:1003800090E034E5239F800D911D1124442379F0E2
:10039000FC01E25CFE4F677081E090E002C0880FD4
:1003A000991F6A95E2F79081892B80830895FC015B
:1003B000E25CFE4F677081E090E002C0880F991FF9
:1003C0006A95E2F7809590818923808308955F92F2
:1003D0006F927F928F929F92AF92BF92CF92DF9255
:1003E000EF92FF920F931F93CF93DF93562E262FFA
:1003F00030E04901880C991C880C991C820E931ED0
:10040000181419040CF059C08901000F111F000FB6
:10041000111F000F111F021B130B612CA82EB12CF2
:10042000C50180975C01AA0CBB1CAA0CBB1CA80EC2
:10043000B91E0F2EF7E3CF2EF3E0DF2EF02D0F2E97
:10044000F6E3EF2EF3E0FF2EF02D2AC0FE012491FB
:1004500030E0872D652D28D202C0359527958A95E5
:10046000E2F720FF09C0F6016081670DF701808186
:1004700041E0860D81DF08C0F6016081670DF7015C
:10048000808140E0860D78DF7394872D90E080179F
:100490009107E4F26394862D90E0881599056CF439
:1004A00010161106BCF7862D652DFED1E501C80F8B
:1004B000D11DC457DF4F712CC9CF8091360391E015
:1004C000980F852D880F880F850D890F843518F4B6
:1004D000809336030EC010923603E7E3F3E0808189
:1004E00091E0980F852D880F880F880F8519890F47
:1004F000808380913703803320F01092360310926E
:100500003703DF91CF911F910F91FF90EF90DF9014
:10051000CF90BF90AF909F908F907F906F905F90A3
:1005200008951F93CF93DF93EC018881882339F0DE
:10053000162F2196612F4BDF89918111FBCFDF911F
:10054000CF911F9108950F931F93CF93DF9380E86E
:10055000C9DE80E4C7DECEE3D1E006E313E061E06C
:100560008991A2DEC017D107D1F7DF91CF911F91FA
:100570000F91089580E480937C0087E880937A004F
:100580000895ECE7F0E09081987F8770892B808355
:10059000EAE7F0E0808180648083808186FDFDCF82
:1005A00080917800909179000895CF93DF9381E056
:1005B000E8DFEC0180E0E5DFCF3F83E0D8071CF007
:1005C000109241030AC0CD32D14024F481E08093DF
:1005D000410303C084E080934103DF91CF910895EC
:1005E00060930401709305018093060190930701C5
:1005F00060933A0170933B0180933C0190933D01DD
:100600000895CF93DF9300D000D01F92CDB7DEB70F
:100610004AE0BE016F5F7F4FCFD19DDE61E08CE08D
:1006200091E07FDF109236038AE08093370363E026
:10063000CE01019676DF87DF0F900F900F900F901D
:100640000F90DF91CF91089580914103882361F04D
:10065000813099F480910A0190910B010196909359
:100660000B0180930A0109C080910A0190910B014E
:10067000019790930B0180930A018091380190912A
:10068000390183309105CCF420910A0130910B019E
:10069000FC01EE0FFF1FE65CFC4F408151814217C9
:1006A000530759F424E630E030930B0120930A01FC
:1006B000019690933901809338010895CF93DF9389
:1006C000109209011092080184E690E090930B01CA
:1006D00080930A0163D1CAE3D3E06091380370913B
:1006E0003903EED067E970E0EBD09983888356D167
:1006F0006091380370913903E3D063E370E0E0D098
:100700009B838A834BD16091380370913903D8D091
:1007100065E670E0D5D08A5B9F4F9D838C831092F5
:100720004703109246031092390110923801DF916D
:10073000CF91089510920901109208011092390387
:100740001092380317DF2AD1CAE3D3E067E970E0DB
:10075000B7D09983888322D163E370E0B1D09B83C3
:100760008A831CD165E670E0ABD09D838C831092A8
:100770004703109246036AE070E080E090E030DFCB
:1007800011B88FEF82B917B888B9AFDDE4DD61E049
:1007900082E191E0C6DE109236038AE0809337034F
:1007A00084E690E02EDF1092400306E313E0C7E3F7
:1007B000D3E00F2EFAE0FF2EF02D6894EE24E1F83E
:1007C000F4DE8091380390913903019690933903B8
:1007D0008093380380914003813021F120F08230F2
:1007E00009F441C0EDCF30DF80910A0190910B01F7
:1007F00008DF809146039091470301969093470349
:10080000809346032091380130913901233031051E
:1008100019F421E020934003803991408CF2E0925A
:100820004003CECF809108019091090101969093E9
:1008300009018093080120914103243031F0409751
:1008400024F03CDF10924003BBCF85DD61E080E205
:1008500091E067DEF8011082F88263E083E391E0C3
:1008600060DE71DEADCF80910801909109010196A3
:10087000909309018093080120914103243031F0C5
:10088000409724F01BDF109240039ACF64DD61E0B3
:1008900088E291E046DEF8011082F88263E081E3AD
:1008A00091E03FDE50DE8CCF991B79E004C0991FA8
:1008B000961708F0961B881F7A95C9F780950895BA
:1008C00097FB072E16F4009406D077FD08D00BD0C6
:1008D00007FC05D03EF4909581959F4F0895709543
:1008E00061957F4F0895AA1BBB1B51E107C0AA1F4A
:1008F000BB1FA617B70710F0A61BB70B881F991FC1
:100900005A95A9F780959095BC01CD0108958F92D5
:100910009F92AF92BF92CF92DF92EF92FF92CF93CE
:10092000DF93EC01688179818A819B816115710572
:100930008105910521F464E279ED8BE597E02DE1E5
:1009400033EF41E050E06BD049015A019B01AC010B
:10095000A7EAB1E480D06B017C01ACEEB4EFA50155
:10096000940185D0DC01CB018C0D9D1DAE1DBF1DFA
:10097000B7FF03C00197A109B04888839983AA8370
:10098000BB839F77DF91CF91FF90EF90DF90CF9067
:10099000BF90AF909F908F900895B9CF80E091E085
:1009A000B6CFA0E0B0E08093000190930101A09346
:1009B0000201B09303010895BB274A3031F4992313
:1009C00022F4BDE2909581959F4F01C0BB27FB01AA
:1009D0005527AA27880F991FAA1FA41710F0A41B38
:1009E00083955051B9F7A05DAA3308F0A95DA19392
:1009F000009779F7B111B1931192CB0100C0DC01DE
:100A0000FC01672F71917723E1F7329704C07C9145
:100A10006D9370836291AE17BF07C8F30895052EDA
:100A200097FB16F400940FD057FD05D024D007FC97
:100A300002D046F408C050954095309521953F4F1F
:100A40004F4F5F4F089590958095709561957F4FBA
:100A50008F4F9F4F089531D0A59F900DB49F900D5B
:100A6000A49F800D911D11240895B7FFF4CFF3DFEB
:100A7000821B930B0895A1E21A2EAA1BBB1BFD013A
:100A80000DC0AA1FBB1FEE1FFF1FA217B307E4076D
:100A9000F50720F0A21BB30BE40BF50B661F771FC5
:100AA000881F991F1A9469F76095709580959095A5
:100AB0009B01AC01BD01CF010895A29FB001B39F7E
:100AC000C001A39F700D811D1124911DB29F700D57
:0C0AD000811D1124911D0895F894FFCFA2
:100ADC0001000000010000004B00640041726D65D4
:100AEC0064004954275320574F524B494E4721001D
:100AFC0044656675736564004578706C6F646564F5
:080B0C0000542057696E00003F
:00000001FF
